:100000000C942A000C9447000C9447000C94470071
:100010000C9457090C942E090C9447000C94050974
:100020000C94DC080C94B3080C9461080C948A08B6
:100030000C9447000C9447000C9447000C94470024
:100040000C9447000C9447000C9447000C94470014
:100050000C94470011241FBECFE5D8E0DEBFCDBF12
:1000600011E0A0E6B0E0EAE1F7E102C005900D92F0
:10007000AE37B107D9F711E0AEE7B1E001C01D928C
:10008000AB3DB107E1F70E941A0B0C948B0B0C945B
:100090000000EF92FF920F931F937B018C0120E0F1
:1000A00030E040E05FE40E94CB0288238CF0C8017E
:1000B000B70120E030E040E05FE40E94C1010E940F
:1000C00059039B01AC01205030404040504806C0CD
:1000D000C801B7010E9459039B01AC01B901CA01D3
:1000E0001F910F91FF90EF900895A0E0B0E0EBE733
:1000F000F0E00C94540BDC012B01FA019C9192303E
:1001000008F439C1EB018881823008F433C194309E
:1001100069F4843009F02FC111969C91119789815F
:10012000981709F428C1A0E6B0E025C1843009F48D
:1001300021C18230A9F4923009F01DC19A01AD01AC
:1001400088E0EA010990AE01E90109929E0181501F
:10015000C1F7E201898111969C918923818308C1AD
:10016000923009F407C112962D903C901397EB0141
:100170008A819B811496AD90BD90CD90DC901797AD
:10018000EC80FD800E811F819101281B390BB90184
:1001900037FF04C066277727621B730B6032710537
:1001A0000CF061C0121613066CF537014801062EDB
:1001B00004C096948794779467940A94D2F721E0C8
:1001C00030E040E050E004C0220F331F441F551FB1
:1001D0006A95D2F721503040404050402E213F21B7
:1001E00040235123211531054105510521F021E01E
:1001F00030E040E050E079018A01E628F72808293C
:1002000019293CC0232BD1F1260E371E350146019A
:10021000062E04C096948794779467940A94D2F734
:1002200021E030E040E050E004C0220F331F441FC3
:10023000551F6A95D2F721503040404050402A2146
:100240003B214C215D21211531054105510521F04E
:1002500021E030E040E050E059016A01A628B728CB
:10026000C828D9280BC0821593052CF01C01AA249C
:10027000BB24650103C0EE24FF24870111969C91E5
:10028000D20111968C91981709F445C0992339F041
:10029000A80197012A193B094C095D0906C0A6016E
:1002A00095012E193F09400B510B57FD08C01182D3
:1002B0003382228224833583468357831DC081E0A5
:1002C00081833382228288279927DC01821B930B4A
:1002D000A40BB50B84839583A683B7830DC0220F2F
:1002E000331F441F551F24833583468357838281E0
:1002F000938101979383828324813581468157813D
:10030000DA01C9010197A109B1098F5F9F4FAF4F72
:10031000BF4328F30BC0918333822282EA0CFB1C7B
:100320000C1D1D1DE482F5820683178383E0808304
:10033000248135814681578157FF1AC0C901AA27F8
:1003400097FDA095BA2F81709070A070B0705695EF
:10035000479537952795822B932BA42BB52B848318
:100360009583A683B7838281938101969383828349
:10037000DF0101C0D201CD01CDB7DEB7E2E10C94BF
:10038000700BA0E2B0E0E7ECF1E00C94600B698345
:100390007A838B839C832D833E834F835887E9E048
:1003A000EE2EF12CEC0EFD1ECE010196B7010E943F
:1003B000D1048E010F5E1F4FCE010596B8010E9439
:1003C000D1048A8991E089278A8BC701B801AE01DF
:1003D000475E5F4F0E9475000E94FC03A096E6E016
:1003E0000C947C0BA0E2B0E0E8EFF1E00C94600B21
:1003F00069837A838B839C832D833E834F835887C5
:10040000F9E0EF2EF12CEC0EFD1ECE010196B701A6
:100410000E94D1048E010F5E1F4FCE010596B801D8
:100420000E94D104C701B801AE01475E5F4F0E9430
:1004300075000E94FC03A096E6E00C947C0BA8E1FA
:10044000B0E0E5E2F2E00C945C0B69837A838B8385
:100450009C832D833E834F835887B9E0EB2EF12C8C
:10046000EC0EFD1ECE010196B7010E94D1048E0153
:100470000F5E1F4FCE010596B8010E94D104298559
:10048000223008F47EC03989323010F4B8017CC0C3
:100490008A859A8989278A87243011F0223031F49D
:1004A000231709F06EC060E670E06EC0343039F496
:1004B0001D861E861F86188A1C861B8604C0323045
:1004C00021F484E08987B7015FC02B853C858B8947
:1004D0009C89281B390B3C872B87ED84FE840F8574
:1004E0001889AD88BE88CF88D88CEA14FB040C0527
:1004F0001D0540F4EE0CFF1C001F111F2150304061
:100500003C872B8720E030E040E050E080E090E046
:10051000A0E0B0E460E070E0EA14FB040C051D0507
:1005200040F0282B392B4A2B5B2BEA18FB080C09CF
:100530001D09B695A79597958795EE0CFF1C001F92
:10054000111F6F5F7F4F6F31710531F7DA01C901FC
:100550008F779070A070B07080349105A105B105BF
:1005600061F427FD0AC0E114F1040105110529F029
:10057000205C3F4F4F4F5F4F20782D873E874F873E
:10058000588BBE01675F7F4FCB010E94FC036896CA
:10059000EAE00C94780BA8E1B0E0E1EDF2E00C9415
:1005A000600B69837A838B839C832D833E834F8387
:1005B000588789E0E82EF12CEC0EFD1ECE01019645
:1005C000B7010E94D1048E010F5E1F4FCE01059628
:1005D000B8010E94D1048985823040F08989823037
:1005E00028F0C701B8010E94490501C08FEF689645
:1005F000E6E00C947C0BA8E0B0E0E1E0F3E00C94C2
:100600005D0B9B01AC0183E08983DA01C901882776
:10061000B7FD83959927AA27BB27B82E2115310549
:100620004105510519F482E089833AC08823A9F075
:10063000203080E0380780E0480780E8580729F438
:1006400060E070E080E09FEC30C0EE24FF24870182
:10065000E21AF30A040B150B02C079018A018EE13C
:10066000C82ED12CDC82CB82ED82FE820F831887CC
:10067000C801B7010E94AD0301971816190684F44A
:10068000082E04C0EE0CFF1C001F111F0A94D2F7A5
:10069000ED82FE820F831887C81AD90ADC82CB82CA
:1006A000BA82CE0101960E94FC032896E9E00C94E0
:1006B000790BACE0B0E0EFE5F3E00C94640B6983F8
:1006C0007A838B839C83CE010196BE016B5F7F4F43
:1006D0000E94D1048D81823061F1823050F18430EA
:1006E00021F48E81882351F12EC02F81388537FD6A
:1006F00020C06E812F3131051CF06623F9F023C034
:100700008EE190E0821B930B29853A854B855C85B1
:1007100004C056954795379527958A95D2F7662355
:10072000B1F050954095309521953F4F4F4F5F4F19
:100730000EC020E030E040E050E009C02FEF3FEF76
:100740004FEF5FE704C020E030E040E050E8B9013F
:10075000CA012C96E2E00C94800BEF92FF920F936B
:100760001F937B018C0180E0E81680E0F80681E0B1
:10077000080780E0180788F48FEFE816F1040105F8
:10078000110531F028F088E090E0A0E0B0E017C05B
:1007900080E090E0A0E0B0E012C080E0E81680E0E9
:1007A000F80680E0080781E0180728F088E190E06B
:1007B000A0E0B0E004C080E190E0A0E0B0E020E282
:1007C00030E040E050E0281B390B4A0B5B0B04C0C3
:1007D00016950795F794E7948A95D2F7F701E859AB
:1007E000FF4F8081281B310941095109C9011F911F
:1007F0000F91FF90EF900895DF92EF92FF920F9389
:100800001F93FC01E480F58006811781D1808081EF
:10081000823048F480E090E0A0E1B0E0E82AF92AD4
:100820000A2B1B2BA5C0843009F49FC0823021F411
:10083000EE24FF24870105C0E114F1040105110530
:1008400019F4E0E0F0E096C0628173819FEF6238B6
:1008500079070CF05BC022E83FEF261B370B2A31EB
:1008600031052CF020E030E040E050E02AC0B80133
:10087000A701022E04C076956795579547950A946F
:10088000D2F781E090E0A0E0B0E004C0880F991FAB
:10089000AA1FBB1F2A95D2F70197A109B1098E2182
:1008A0009F21A023B1230097A105B10521F081E08C
:1008B00090E0A0E0B0E09A01AB01282B392B4A2B45
:1008C0005B2BDA01C9018F779070A070B070803413
:1008D0009105A105B10539F427FF09C0205C3F4F00
:1008E0004F4F5F4F04C0215C3F4F4F4F5F4FE0E0E1
:1008F000F0E02030A0E03A07A0E04A07A0E45A0761
:1009000010F0E1E0F0E079018A0127C0603871055C
:1009100064F5FB01E158FF4FD801C7018F77907054
:10092000A070B07080349105A105B10539F4E7FEDF
:100930000DC080E490E0A0E0B0E004C08FE390E060
:10094000A0E0B0E0E80EF91E0A1F1B1F17FF05C04C
:1009500016950795F794E794319687E016950795D5
:10096000F794E7948A95D1F705C0EE24FF24870118
:10097000EFEFF0E06E2F679566276795902F9F77D2
:10098000D794DD24D7948E2F8695492F462B582F48
:100990005D29B701CA011F910F91FF90EF90DF9081
:1009A0000895FC01DB01408151812281622F6F7724
:1009B00070E0221F2227221F9381892F880F822B0C
:1009C000282F30E0991F9927991F11969C93119712
:1009D00021153105A9F5411551056105710511F480
:1009E00082E037C082E89FEF13969C938E93129714
:1009F0009A01AB0167E0220F331F441F551F6A9510
:100A0000D1F783E08C930DC0220F331F441F551F75
:100A100012968D919C911397019713969C938E93A8
:100A20001297203080E0380780E0480780E45807BC
:100A300058F314962D933D934D935C931797089517
:100A40002F3F310579F4411551056105710519F400
:100A500084E08C93089564FF03C081E08C9312C0FE
:100A60001C9210C02F57304013963C932E93129730
:100A700083E08C9387E0440F551F661F771F8A958C
:100A8000D1F7706414964D935D936D937C93179793
:100A900008951F93DC01FB019C91923008F447C03C
:100AA0008081823008F443C0943051F411961C9137
:100AB000843099F58181682F70E0611B71093FC016
:100AC000843021F0923031F48230B9F18181882371
:100AD00089F12DC011961C9111978230F1F081811E
:100AE0001817D9F412962D913C9113978281938116
:100AF0008217930794F028173907BCF014968D914C
:100B00009D910D90BC91A02D248135814681578106
:100B1000281739074A075B0718F4112341F00AC068
:100B200082179307A407B50740F4112319F061E079
:100B300070E005C06FEF7FEF02C060E070E0CB01B6
:100B40001F91089585B7806885BF089585B78F7711
:100B500085BF08958BB390E489278BBB10928601E3
:100B60001092870110928801109289016DE070E067
:100B70002FC08091860190918701A0918801B0914A
:100B80008901869FF001879FF00D969FF00D11243B
:100B9000E756FE4F81859285A385B4850196A11DF8
:100BA000B11D81879287A387B48780918601909138
:100BB0008701A0918801B09189010196A11DB11D05
:100BC0008093860190938701A0938801B093890157
:100BD00020918601309187014091880150918901CF
:100BE00080917E0190917F01A0918001B09181015F
:100BF000281739074A075B0708F4BBCF08952F92DF
:100C00003F924F925F926F927F928F929F92AF929C
:100C1000BF92CF92DF92EF92FF920F931F93DF93D9
:100C2000CF93CDB7DEB76A970FB6F894DEBF0FBE8D
:100C3000CDBF5B016C01BA01490180917E019091A9
:100C40007F01A0918001B09181010697A105B105B6
:100C500010F020E0F5C080917E0190917F01A0917D
:100C60008001B09181010097A105B10559F48091EF
:100C70007E0190917F01A0918001B09181012DE0D2
:100C800030E039C080917E0190917F01A091800178
:100C9000B09181010197A109B1092DE030E0829F57
:100CA000F001839FF00D929FF00D1124E756FE4F47
:100CB0008481958148175907B0F446EA51E09A01BA
:100CC0002D503040E0E05524EE24FF2487019EE0C3
:100CD000292E312C2C0E3D1E3E010894611C711CE6
:100CE00082E0482E9EC080917E0190917F01A0916C
:100CF0008001B0918101829FF001839FF00D929F4E
:100D0000F00D1124E756FE4F9782868280917E0176
:100D100090917F01A0918001B0918101829FF001AB
:100D2000839FF00D929FF00D1124E756FE4FA08295
:100D3000B182C282D38280917E0190917F01A09185
:100D40008001B0918101829FF001839FF00D929FFD
:100D5000F00D1124E756FE4F7583648380917E0168
:100D600090917F01A0918001B0918101829FF0015B
:100D7000839FF00D929FF00D1124E756FE4F82E005
:100D800080875DC0552009F5D90114968D919C91FD
:100D9000159768177907C8F4D301F9018DE0019020
:100DA0000D928150E1F7F90197828682D901AD92C7
:100DB000BD92CD92DC92139715967C936E93149707
:100DC00018964C925524539402C0E13081F4D1011D
:100DD000FA018DE001900D928150E1F7DA01F30103
:100DE0008DE001900D928150E1F7E2E011C0E23018
:100DF00079F4D301FA018DE001900D928150E1F771
:100E0000DA01F1018DE001900D928150E1F7E1E00E
:100E10000894E11CF11C011D111D435F5F4F235F0E
:100E20003F4F80917E0190917F01A0918001B09110
:100E30008101E816F9060A071B0708F4A3CF21E091
:100E400080917E0190917F01A0918001B0918101FC
:100E50000196A11DB11D80937E0190937F01A09307
:100E60008001B0938101822F6A960FB6F894DEBF9D
:100E70000FBECDBFCF91DF911F910F91FF90EF90EB
:100E8000DF90CF90BF90AF909F908F907F906F90AA
:100E90005F904F903F902F900895EF92FF920F93A5
:100EA0001F93CF93DF937C0180917E0190917F010E
:100EB000A0918001B09181010097A105B10511F4C5
:100EC00000E065C066EA71E0EB012D9710E001E0FB
:100ED00020E030E040E050E039C08E819F818E15E7
:100EE0009F0509F580917E0190917F01A09180017D
:100EF000B09181010197A109B109281739074A0763
:100F00005B0711F011E014C08DE090E0289FF00124
:100F1000299FF00D389FF00D1124E756FE4F1086E3
:100F20001782168221C0113019F000E010E007C0CE
:100F3000DE01FB018DE001900D928150E1F72F5F02
:100F40003F4F4F4F5F4F635F7F4F2D9680917E01E4
:100F500090917F01A0918001B091810128173907FC
:100F60004A075B0708F4B9CF80917E0190917F0119
:100F7000A0918001B09181010197A109B1098093ED
:100F80007E0190937F01A0938001B0938101802F17
:100F9000DF91CF911F910F91FF90EF900895DF9215
:100FA000EF92FF920F931F93CF93DF93EE24FF24D2
:100FB0008701CDE0D0E072E0D72E35C0EC9EF00185
:100FC000ED9EF00DFC9EF00D1124E756FE4F21859D
:100FD00032854385548580819181A281B381281710
:100FE00039074A075B07D1F4DA01C901880F991F55
:100FF000AA1FBB1F82179307A407B50778F01186B5
:101000001286138614868085823029F40680F78143
:10101000E02D099503C0813009F4D0860894E11CC5
:10102000F11C011D111D80917E0190917F01A09105
:101030008001B0918101E816F9060A071B0708F440
:10104000BDCFEE24FF248701EECFE0916D01F0913A
:101050006E0180810E94A50A0895FC018181928120
:10106000A381B4818093820190938301A093840132
:10107000B0938501E081E13071F0E13020F0E230A1
:1010800099F080E0089580E00E9480098AEA95E066
:101090000E94ED0A07C081E00E9480098AEA95E07B
:1010A0000E94F70A81E0089582E00E9480098AEA9E
:1010B00095E00E94060B81E0089590E00E94BD0A31
:1010C00008951F920F920FB60F9211242F933F9302
:1010D0004F935F936F937F938F939F93AF93BF9340
:1010E000EF93FF93E0918D01F0918E01309709F01D
:1010F0000995FF91EF91BF91AF919F918F917F9152
:101100006F915F914F913F912F910F900FBE0F9074
:101110001F9018951F920F920FB60F9211242F93C4
:101120003F934F935F936F937F938F939F93AF936F
:10113000BF93EF93FF93E0918B01F0918C01309777
:1011400009F00995FF91EF91BF91AF919F918F9118
:101150007F916F915F914F913F912F910F900FBEB3
:101160000F901F9018951F920F920FB60F92112497
:101170002F933F934F935F936F937F938F939F939F
:10118000AF93BF93EF93FF93E0918F01F0919001A4
:10119000309709F00995FF91EF91BF91AF919F9121
:1011A0008F917F916F915F914F913F912F910F9010
:1011B0000FBE0F901F9018951F920F920FB60F92AF
:1011C00011242F933F934F935F936F937F938F934C
:1011D0009F93AF93BF93EF93FF93E0919301F091AF
:1011E0009401309709F00995FF91EF91BF91AF916C
:1011F0009F918F917F916F915F914F913F912F912F
:101200000F900FBE0F901F9018951F920F920FB660
:101210000F9211242F933F934F935F936F937F937C
:101220008F939F93AF93BF93EF93FF93E0919101BF
:10123000F0919201309709F00995FF91EF91BF91DC
:10124000AF919F918F917F916F915F914F913F915E
:101250002F910F900FBE0F901F9018951F920F9215
:101260000FB60F9211242F933F934F935F936F9379
:101270007F938F939F93AF93BF93EF93FF93E091EF
:101280009501F0919601309709F00995FF91EF9142
:10129000BF91AF919F918F917F916F915F914F918E
:1012A0003F912F910F900FBE0F901F9018951F9296
:1012B0000F920FB60F9211242F933F934F935F938A
:1012C0006F937F938F939F93AF93BF93EF93FF930E
:1012D000E0919701F0919801309709F00995FF91FD
:1012E000EF91BF91AF919F918F917F916F915F919E
:1012F0004F913F912F910F900FBE0F901F90189517
:10130000CF93DF93982FA82FB0E0ED01C657DE4FA3
:1013100081E088839130E9F1913020F0923009F03A
:10132000A3C06AC080E883BFFD01EE0FFF1FEA0F74
:10133000FB1FEE0FFF1FEE0FFF1FEE58FE4F8381C6
:1013400094818F3F910510F482BF06C08F3F9105B5
:1013500019F0188210927101FD01EE0FFF1FEA0FC4
:10136000FB1FEE0FFF1FEE0FFF1FEE58FE4F828593
:10137000882339F489B7816089BF8FB780688FBFB0
:1013800076C0813019F08F3F09F06AC089B78E7F2F
:1013900065C083E08FBDFD01EE0FFF1FEA0FFB1F4D
:1013A000EE0FFF1FEE0FFF1FEE58FE4F838194815B
:1013B0002FEF8F3F920711F08CBD01C01CBCFD01C7
:1013C000EE0FFF1FEA0FFB1FEE0FFF1FEE0FFF1FB9
:1013D000EE58FE4F8285882341F489B7846089BF27
:1013E0008FB780688FBF8E9A42C0813011F08F3FD7
:1013F000B9F589B78B7F32C082B5807F82BD80E826
:1014000085BDFD01EE0FFF1FEA0FFB1FEE0FFF1F53
:10141000EE0FFF1FEE58FE4F838194818F3F9105A1
:1014200008F484BDFD01EE0FFF1FEA0FFB1FEE0F56
:10143000FF1FEE0FFF1FEE58FE4F8285882341F4F9
:1014400089B7806489BF8FB780688FBF8F9A0FC0BC
:10145000813011F08F3F21F489B78F7B89BF07C09E
:10146000A657BE4F1C9201C0188210927101809144
:101470007101DF91CF910895813089F0813020F0A2
:10148000823009F05FC03AC090917701983020F423
:1014900083B7892B83BF56C010928A0151C08091B7
:1014A00083018330C9F0843028F4813071F08230B8
:1014B00080F409C08530B1F0853088F08630A9F01D
:1014C0008730C9F415C08EB502C08EB581608EBD5F
:1014D00039C08EB58260FBCF8EB58360F8CF8EB5F4
:1014E0008460F5CF8EB58560F2CF8EB58660EFCF84
:1014F0008EB58760ECCF10928B0122C090918F0146
:10150000963028F4943058F4933070F005C096303B
:1015100071F0973099F40EC085B584600DC085B523
:101520009E5F982B95BD0EC085B5892B05C085B5EE
:10153000836002C085B5856085BD04C010928C01B2
:1015400010927001809170010895813049F08130CE
:1015500018F0823069F408C083B7887F83BF0AC05F
:101560008EB5887F8EBD06C085B5887F85BD02C0DB
:1015700010926F0180916F010895682F8091DA01B8
:1015800090E0FC01EE0FFF1FE80FF91FEE0FFF1FA9
:10159000EE0FFF1FEE58FE4FE081E13041F0E130E9
:1015A00020F0E23011F080E0089581E0089570E0CD
:1015B000882777FD8095982F0E94FB0220E030E07D
:1015C00040E050E00E941F020E9449007DBD6CBDBA
:1015D0008EB582608EBD81E0089590938C018093DA
:1015E0008B01089590938E0180938D0108959093BF
:1015F000900180938F0108959093920180939101BF
:101600000895909394018093930108959093960187
:101610008093950108959093980180939701089580
:101620008BB391E089278BBB08958BB392E0892718
:101630008BBB08958FEF8ABB80916D0190916E01F5
:101640000E942D0864EF71E080E090E041E050E0FE
:1016500020E13BE00E94FF0568EE73E080E090E04F
:1016600042E050E025E13BE00E94FF0568EC70E0BD
:1016700080E090E042E050E02BE43BE00E94FF0578
:101680008FB780688FBF81E00E945D080E94CF07FE
:1016900080E090E008958BB394E089278BBB8BE4C6
:1016A0009BE00E944D0708952F923F924F925F92C8
:1016B0006F927F928F929F92AF92BF92CF92DF9262
:1016C000EF92FF920F931F93CF93DF93CDB7DEB7C7
:1016D000CA1BDB0B0FB6F894DEBF0FBECDBF09945B
:1016E0002A88398848885F846E847D848C849B84B2
:1016F000AA84B984C884DF80EE80FD800C811B81C0
:10170000AA81B981CE0FD11D0FB6F894DEBF0FBEEE
:0A171000CDBFED010895F894FFCF5E
:10171A0000000000000000000001020203030303AE
:10172A000404040404040404050505050505050567
:10173A000505050505050505060606060606060647
:10174A00060606060606060606060606060606062F
:10175A000606060606060606070707070707070717
:10176A0007070707070707070707070707070707FF
:10177A0007070707070707070707070707070707EF
:10178A0007070707070707070707070707070707DF
:10179A0007070707070707070808080808080808C7
:1017AA0008080808080808080808080808080808AF
:1017BA00080808080808080808080808080808089F
:1017CA00080808080808080808080808080808088F
:1017DA00080808080808080808080808080808087F
:1017EA00080808080808080808080808080808086F
:1017FA00080808080808080808080808080808085F
:10180A00080808080808080808080808080808084E
:10181A000808080808080808010100000068010112
:0E182A000101010000000002FF00FF000000AD
:00000001FF
